{
  "contractName": "TodoList",
  "abi": [
    {
      "constant": true,
      "inputs": [],
      "name": "taskCount",
      "outputs": [
        {
          "name": "",
          "type": "uint256"
        }
      ],
      "payable": false,
      "stateMutability": "view",
      "type": "function",
      "signature": "0xb6cb58a5"
    }
  ],
  "bytecode": "0x608060405260008055348015601357600080fd5b50609e806100226000396000f3fe608060405260043610603f576000357c0100000000000000000000000000000000000000000000000000000000900463ffffffff168063b6cb58a5146044575b600080fd5b348015604f57600080fd5b506056606c565b6040518082815260200191505060405180910390f35b6000548156fea165627a7a72305820824ba978176362335498b35417054f6e036cc9b16916539d151201fb5f8225780029",
  "source": "pragma solidity ^0.5.0;   //used to mention the version and compiler compatible with it, 0.5.0 to 0.6.0 compilers can be used here\r\n\r\ncontract TodoList{             //creates a smart contract, with the same name as file name... A contract in solidity is like a class\r\n uint public taskCount = 0;   //Here taskCount is an unsigned integer type (unit) state variable. \r\n //State variables are variables whose values are permanently stored in contract storage.\r\n //public, allows other contracts to get the values of this contract.(just like in C++ classes)\r\n}",
  "sourcePath": "C:/Users/SAYANTAN/Desktop/eth-todo-list/contracts/TodoList.sol",
  "compiler": {
    "name": "solc",
    "version": "0.5.0+commit.1d4f565a.Emscripten.clang"
  },
  "schemaVersion": "3.0.1",
  "updatedAt": "2022-02-27T07:52:54.626Z",
  "devdoc": {
    "methods": {}
  },
  "userdoc": {
    "methods": {}
  }
}